:020000040800F2
:1000000034CC00209D4D0008A1740008AD74000898
:10001000B5740008BD740008C57400080000000035
:10002000000000000000000000000000CD74000887
:10003000D974000800000000E5740008F17400089D
:10004000094E0008094E0008094E0008094E000834
:10005000094E0008094E0008094E0008094E000824
:10006000094E0008094E0008094E0008094E000814
:10007000094E0008850D0008094E0008094E0008C9
:10008000094E0008094E0008094E0008094E0008F4
:10009000094E0008094E0008094E0008094E0008E4
:1000A000094E0008094E0008094E0008094E0008D4
:1000B000094E0008094E0008094E0008094E0008C4
:1000C000094E0008094E0008094E0008094E0008B4
:1000D000094E0008094E0008094E0008094E0008A4
:1000E000FD740008094E0008094E0008094E00087A
:1000F000094E0008094E0008094E0008094E000884
:10010000094E0008094E0008094E0008094E000873
:10011000094E0008094E0008094E0008094E000863
:10012000094E0008094E0008094E0008094E000853
:10013000094E0008094E0008094E0008094E000843
:10014000094E0008094E0008094E0008094E000833
:10015000094E0008094E0008094E0008094E000823
:10016000094E0008094E0008094E0008094E000813
:10017000094E0008094E0008094E0008094E000803
:10018000094E0008094E000890B484B000AF024642
:100190000B46FA71BB714FF00003FB60BB7903F0B3
:1001A00003034FEA83034FF00F0202FA03F3FB60ED
:1001B0004FF46053C4F20103BA794FEA9202D2B20B
:1001C00010464FF46052C4F20102B9794FEA91012E
:1001D000C9B201F1020152F82110FA686FEA020275
:1001E000114000F1020243F822104FF46053C4F2B0
:1001F0000103BA794FEA9202D2B210464FF460522C
:10020000C4F20102B9794FEA9101C9B201F10201C8
:1002100052F82110FC79BA7902F003024FEA820207
:1002200004FA02F2114300F1020243F8221007F12E
:100230001007BD4690BC704780B483B000AF7860B3
:100240004FF0DC03C4F227237A681A6007F10C0729
:10025000BD4680BC704700BF80B485B000AF7860F9
:1002600042F6E043C2F200031A687B681B88D31889
:10027000FB607A68FB689A422ED0FB681B79002BE2
:100280002AD142F6E443C2F200031B68FA689A429C
:1002900022D042F6E843C2F200031A68FB689A4291
:1002A00005D142F6E843C2F200037A681A60FB689F
:1002B0001A887B681A8042F6E043C2F200031A688B
:1002C000FB681B88D218796842F6E043C2F200034B
:1002D0001B68CB1A9BB2538042F6E043C2F2000384
:1002E0001A687B685B88D318BB60BA687B689A42DF
:1002F00026D0BB681B79002B22D142F6E843C2F21C
:1003000000031A687B689A4205D142F6E843C2F2BC
:100310000003BA681A607B681A88BB681A8042F6C4
:10032000E043C2F200031A687B681B88D218B968E0
:1003300042F6E043C2F200031B68CB1A9BB2538023
:1003400007F11407BD4680BC704700BF80B483B07E
:1003500000AF40F2CC43C2F2000303F1030323F0E9
:1003600003031A4642F6E043C2F200031A6042F663
:10037000E043C2F200031B687B607B684FF42052AD
:100380001A807B684FF000025A807B684FF00002B1
:100390001A7142F6E043C2F200031B6803F52052D3
:1003A00042F6E443C2F200031A6042F6E443C2F2AA
:1003B00000031B684FF001021A7142F6E443C2F2D7
:1003C00000031B684FF420521A8042F6E443C2F245
:1003D00000031B684FF420525A8042F6EC43C2F2ED
:1003E00000034FF001021A7042F6E043C2F200032C
:1003F0001A6842F6E843C2F200031A6007F10C07DC
:10040000BD4680BC704700BF80B584B000AF786047
:100410007B68002B30D042F6E043C2F200031B6839
:100420007A689A4242F6E043C2F200031B687A6897
:100430009A4223D342F6E443C2F200031B687A686F
:100440009A421BD27B68A3F10803FB60FB684FF064
:1004500000021A7142F6E843C2F200031B68FA6810
:100460009A4205D242F6E843C2F20003FA681A60E3
:10047000F868FFF7F1FE02E000BF00E000BF07F1FF
:100480001007BD4680BD00BF80B487B000AF786064
:100490000B467B807B8803F103039BB223F00303AD
:1004A0007B807B880B2B02D84FF00C037B807B88F2
:1004B000B3F5205F02D94FF00003CAE042F6E043F3
:1004C000C2F200031B687A689A4242F6E043C2F225
:1004D00000031B687A689A4207D342F6E443C2F2EB
:1004E00000031B687A689A4201D37B68B1E07B689D
:1004F000A3F108037B617A6942F6E043C2F200038C
:100500001B68D31A7B827B691A887B8AD31A9BB2B9
:10051000A3F108033B827A883B8A9A4202D94FF0C2
:10052000000396E07A883B8A9A4201D17B6890E08A
:1005300042F6E043C2F200031A687B691B88D318B5
:10054000FB60FB681B79002B42D1FB681B887B8119
:100550007A8A7B88D3189BB203F108033B8142F669
:10056000E843C2F200031A68FB689A420BD142F6D4
:10057000E043C2F200031A683B89D21842F6E8430E
:10058000C2F200031A6042F6E043C2F200031A68A6
:100590003B89D318FB60FB684FF000021A71FB68BF
:1005A0007A891A80FB687A8A5A807B693A891A802C
:1005B000FB681B88B3F5205F4AD042F6E043C2F2E5
:1005C00000031A68FB681B88D3183A895A803FE0F9
:1005D0007B8803F114023B8A9A4239D87A8A7B8855
:1005E000D3189BB203F108033B8142F6E043C2F209
:1005F00000031A683B89D318FB6042F6E843C2F255
:1006000000031B68FA689A4205D242F6E843C2F238
:100610000003FA681A60FB684FF000021A717B69E8
:100620001A88FB681A80FB687A8A5A807B693A8943
:100630001A80FB681B88B3F5205F09D042F6E043BF
:10064000C2F200031A68FB681B88D3183A895A80E3
:100650007B68184607F11C07BD4680BC704700BF89
:1006600080B487B000AF0346FB80FB88002B02D12B
:100670004FF00003C8E0FB8803F103039BB223F0B3
:100680000303FB80FB880B2B02D84FF00C03FB808D
:10069000FB88B3F5205F02D94FF00003B4E042F6C7
:1006A000E843C2F200031B681A4642F6E043C2F276
:1006B00000031B68D31AFB829DE042F6E043C2F2BE
:1006C00000031A68FB8AD3183B613B691B79002B36
:1006D00040F088803B691B881A46FB8AD31AA3F135
:1006E0000802FB889A427DD33B691B881A46FB8A25
:1006F000D31AA3F10802FB8803F114039A4230D302
:10070000FA8AFB88D3189BB203F10803FB8142F6F7
:10071000E043C2F200031A68FB89D318BB60BB68D0
:100720004FF000021A713B691A88BB681A80BB68D7
:10073000FA8A5A803B69FA891A803B694FF00102B4
:100740001A71BB681B88B3F5205F0ED042F6E043F8
:10075000C2F200031A68BB681B88D318FA895A8052
:1007600003E03B694FF001021A7142F6E843C2F21E
:1007700000031B683A699A4230D110E042F6E04328
:10078000C2F200031A6842F6E843C2F200031B6893
:100790001B88D21842F6E843C2F200031A6042F600
:1007A000E843C2F200031B681B79002B0BD042F612
:1007B000E843C2F200031A6842F6E443C2F20003BF
:1007C0001B689A42DAD142F6E843C2F200031A6883
:1007D00042F6E443C2F200031B689A423B6903F10C
:1007E000080311E042F6E043C2F200031A68FB8AF4
:1007F000D3181B88FB82FA8AFB88C3F520539A42E0
:10080000FFF65BAF4FF00003184607F11C07BD462B
:1008100080BC704780B483B000AF03463960FB7181
:1008200097F90730002B10DA4FF46D43CEF2000336
:10083000FA7902F00F02A2F104013A68D2B24FEA4B
:100840000212D2B25B181A760DE04FF46143CEF279
:10085000000397F907103A68D2B24FEA0212D2B2F7
:100860005B1883F8002307F10C07BD4680BC704776
:1008700080B582B000AF78607A686FF07F439A42AB
:1008800002D94FF001031FE04EF21003CEF2000335
:100890007A6822F07F4202F1FF325A604FF0FF3057
:1008A0004FF00F01FFF7B6FF4EF21003CEF2000338
:1008B0004FF000029A604EF21003CEF200034FF0A8
:1008C00007021A604FF00003184607F10807BD46FB
:1008D00080BD00BF80B584B000AF3B46184606F02F
:1008E0001FFB3A6844F6D353C1F26203A3FB021321
:1008F0004FEA93131846FFF7BBFF0346002B00D0C7
:10090000FEE707F11007BD4680BD00BF80B485B08B
:1009100000AF786042F6F043C2F200031A687B68C9
:10092000D318FB6000BF42F6F043C2F200031A681E
:10093000FB689A42F7D307F11407BD4680BC7047A5
:1009400080B400AF42F6F043C2F200031B6803F12B
:10095000010242F6F043C2F200031A60BD4680BCB9
:10096000704700BF80B500AF46F24000C4F20200FD
:1009700040F20001C2F2000109F00CF946F2400019
:10098000C4F202004FF0010109F05CF94FF48060FD
:10099000C4F200004FF480514FF001020CF066FBEE
:1009A00080BD00BF80B483B000AF4FF000037B6018
:1009B0000CE042F6F443C2F200037A684FF0000103
:1009C00023F812107B6803F101037B607B68BF2B67
:1009D000EFDD4FF000033B6026E048F22833C2F21F
:1009E0000003396813F821206FF3070203F8212070
:1009F00048F22832C2F200023B684FEA8303D31860
:100A00005A786FF307025A7048F22832C2F2000295
:100A10003B684FEA8303D3189A786FF307029A7002
:100A20003B6803F101033B603B68EF2BD5DD07F129
:100A30000C07BD4680BC704780B58CB000AFFFF797
:100A4000B1FF4FF004004FF0010106F04FFB4FF0F3
:100A500002004FF0010106F073FB4FF0030387F82B
:100A60002D304FF40073BB624FF0020387F82C3037
:100A70004FF0000387F82E304FF0000387F82F3037
:100A800007F128034FF40060C4F20200194608F091
:100A900051FE4FF40060C4F202004FF009014FF024
:100AA000020208F0E9FE4FF00003BB844FF00003A0
:100AB000FB834FF068033B624FF00003BB8307F1F9
:100AC0001C034FF48060C4F2000019460CF02EF9AC
:100AD0004FF060033B814FF000033B834FF4007302
:100AE0007B834FF00003BB824FF00003FB824FF08B
:100AF00001037B814FF00003BB814FF000033B619A
:100B000007F108034FF48060C4F2000019460CF0AE
:100B1000C7F94FF48060C4F200004FF001010CF0FF
:100B20007DFA4FF48060C4F200004FF008010CF031
:100B300027FA4FF48060C4F200004FF001010CF07E
:100B40006FF94FF48060C4F200004FF00C014FF0D9
:100B500001020CF035FA4FF48060C4F200004FF04F
:100B600001010CF07DF94FF400104FF0010106F087
:100B7000BDFA4FF48060C4F200004FF480514FF092
:100B800001020CF073FA46F24000C4F202004FF08A
:100B900008014FF0010209F071F846F24000C4F27A
:100BA00002004FF010014FF0010209F067F8FFF763
:100BB000D9FE4FF00D033B714FF004037B714FF0F2
:100BC0000003BB714FF00103FB7107F104031846EA
:100BD0000AF08EF907F13007BD4680BD80B485B0BC
:100BE00000AF78600B46FB704FF08003FB73FA7820
:100BF000FB7B1340DBB2002B05D07B681B684FF0FA
:100C000031021A8004E07B681B684FF014021A80DE
:100C10007B681B6803F102027B681A60FB7B4FEA6A
:100C20005303FB73FB7B002BE1D107F11407BD4697
:100C300080BC704780B586B000AF78604FF000038D
:100C40007B6196E042F67863C2F200031B68002BDA
:100C500023D042F67863C2F200034FF000021A601C
:100C60004FF000033B6114E07A6913464FEA4303F7
:100C70009B184FEAC3031A463B69D3184FEA430354
:100C80007A68D3184FF000021A803B6903F1010320
:100C90003B613B69172BE7D967E042F67463C2F208
:100CA00000031B68F02B2AD142F67863C2F20003DE
:100CB0004FF001021A6042F67463C2F200034FF073
:100CC00000021A604FF000033B6114E07A6913469A
:100CD0004FEA43039B184FEAC3031A463B69D318F4
:100CE0004FEA43037A68D3184FF000021A803B6939
:100CF00003F101033B613B69172BE7D935E042F66D
:100D00007463C2F200031A684FEA820148F2283382
:100D1000C2F20003CB18FB6002F1010242F67463D9
:100D2000C2F200031A607A6913464FEA43039B1824
:100D30004FEA03137A68D318BB60FB685B7807F14E
:100D4000080210461946FFF749FFFB681B7807F1B8
:100D5000080210461946FFF741FFFB689B7807F130
:100D6000080210461946FFF739FF7B6903F10103BA
:100D70007B617B69032B7FF665AF07F11807BD46E2
:100D800080BD00BF80B500AF46F24000C4F2020053
:100D90004FF48041C1F2100108F0AAFF0346002B76
:100DA0000FD046F24000C4F202004FF48041C1F27D
:100DB000100108F0FDFF42F6F440C2F20000FFF718
:100DC00039FF46F24000C4F202004FF40041C1F284
:100DD000200108F08DFF0346002B0CD046F24000A6
:100DE000C4F202004FF40041C1F2200108F0E0FF1C
:100DF0000148FFF71FFF80BDB42D002080B500AF74
:100E000000F00CFE42F67C63C2F200031B7803F193
:100E10000103DAB242F67C63C2F200031A7042F6B2
:100E20007C63C2F200031B7803F00103002B01D0A6
:100E300000F0CEFB80BD00BF80B584B000AF78600D
:100E40007B681B7C072B00F2BC8001A252F823F0C8
:100E5000710E0008170F00083D0F0008630F00080F
:100E6000830F0008C30F0008C30F0008A30F00087A
:100E70004FF00003FB7348F2F863C2F200031A68F4
:100E80007B689A420BD148F2F863C2F200031B68F8
:100E9000DA6848F2F863C2F200031A602EE048F202
:100EA000F863C2F200031A6848F2F463C2F2000366
:100EB0001A601CE048F2F463C2F200031B68DA68AF
:100EC0007B689A4208D148F2F463C2F200031B68BF
:100ED0007A68D268DA6011E048F2F463C2F2000383
:100EE0001B68DA6848F2F463C2F200031A6048F241
:100EF000F463C2F200031B68002BDBD17B684FF068
:100F00000002DA604FF00200796803F0BBF84FF09E
:100F100000037B6061E04FF00003FB7348F2F06078
:100F2000C2F20000796800F0EDFF4FF0030079682D
:100F300003F0A8F84FF000037B604EE04FF0000391
:100F4000FB7348F2E860C2F20000796800F0DAFF53
:100F50004FF00200796803F095F84FF000037B60D2
:100F60003BE078684FF001010CF024F90346FB7375
:100F700097F90F30002B2BD17B684FF005021A74C4
:100F800026E078684FF001010CF014F90346FB737A
:100F900097F90F30002B1DD17B684FF005021A74B2
:100FA00018E078684FF001010CF004F90346FB7378
:100FB00097F90F30002B0FD17B684FF009021A749C
:100FC0000AE04FF00003FB734FF000037B6004E086
:100FD00000BF02E000BF00E000BF7B68002B06D02E
:100FE00097F90F30002B02D178680CF081FCFB7B65
:100FF0005BB2184607F11007BD4680BD80B58CB0C6
:1010000002AF786039607B681B7C0A2B0CD148F2F8
:10101000FC60C2F20000796800F074FF4FF002003B
:10102000796803F02FF85BE07B689B6D7B627B68DF
:101030005B6A3B627B68002B02D07B681B6801E027
:101040004FF00003FB607B6803F10403002B02D028
:101050007B685B6801E04FF000033B617B681B8BA2
:10106000FB837B681B8CBB837B68D3F89030BB61B0
:101070007B685B697B6148F2E860C2F200007968D6
:1010800000F040FF7B689B6F002B04D07B689B6F58
:10109000184600F021FD7B685B6F002B04D07B6855
:1010A0005B6F184600F018FD4FF00200796802F0FF
:1010B000E9FFBB69002B04D0BB6978696FF00401BC
:1010C00098473B68002B0BD007F10C0207F1100387
:1010D000F98B0091B98B0191786A396A0CF02EFE78
:1010E00007F12807BD4680BD80B586B000AFF86027
:1010F000B9601346FB80FB681B7C002B02D04FF0CD
:10110000F303B9E0FB88002B03D100F0EDF90346AF
:10111000FB8048F2F063C2F200031B687B611EE0B3
:101120007B691B8BFA889A4216D17B69002B10D001
:101130007B691B68002B0CD0BB68002B09D0BB68F7
:101140001B68002B05D07B691A68BB681B689A4234
:1011500002D14FF0F5038FE07B69DB687B617B692F
:10116000002BDDD148F2E863C2F200031B687B610B
:101170001EE07B691B8BFA889A4216D17B69002B93
:1011800010D07B691B68002B0CD0BB68002B09D0EA
:10119000BB681B68002B05D07B691A68BB681B689D
:1011A0009A4202D14FF0F50366E07B69DB687B6110
:1011B0007B69002BDDD148F2F863C2F200031B68A3
:1011C0007B611EE07B691B8BFA889A4216D17B6992
:1011D000002B10D07B691B68002B0CD0BB68002B48
:1011E00009D0BB681B68002B05D07B691A68BB68F7
:1011F0001B689A4202D14FF0F5033DE07B69DB6842
:101200007B617B69002BDDD148F2FC63C2F20003F5
:101210001B687B6110E07B691B8BFA889A4208D1BE
:101220007B691A68BB681B689A4202D14FF0F503CC
:1012300022E07B69DB687B617B69002BEBD1BB68BB
:10124000002B07D0BB681B68002B03D0FB68BA6873
:1012500010681860FB68FA881A8348F2F863C2F2D3
:1012600000031A68FB68DA6048F2F863C2F2000310
:10127000FA681A604FF000035BB2184607F11807CE
:10128000BD4680BD80B485B000AFF860B96013463C
:10129000FB714FF0FB035BB2184607F11407BD4624
:1012A00080BC704780B584B000AF78600B46FB709F
:1012B0007B681B7C002B02D04FF0000399E07B6819
:1012C0001B7C012B01D17B6893E04FF0030002F0FF
:1012D000B3FEF860FB68002B02D14FF0000388E0FA
:1012E0007B685A69FB685A617B681A8BFB681A83B2
:1012F000FB684FF001021A747B681A89FB681A8137
:10130000FB681B8943F002039AB2FB681A817B6871
:10131000DA7AFB68DA727B689A7AFB689A727B6881
:10132000002B02D07B681B6801E04FF00003FA68D5
:10133000136048F2F863C2F200031A687B689A42AD
:101340000BD148F2F863C2F200031B68DA6848F276
:10135000F863C2F200031A602EE048F2F863C2F2AA
:1013600000031A6848F2F463C2F200031A601CE03A
:1013700048F2F463C2F200031B68DA687B689A42A1
:1013800008D148F2F463C2F200031B687A68D2689D
:10139000DA6011E048F2F463C2F200031B68DA6815
:1013A00048F2F463C2F200031A6048F2F463C2F236
:1013B00000031B68002BDBD17B684FF00002DA6072
:1013C0004FF00200796802F05DFEFA6841F2852371
:1013D000C0F60003D36148F2F063C2F200031A685A
:1013E000FB68DA6048F2F063C2F20003FA681A6040
:1013F000FB68184607F11007BD4680BD80B485B074
:1014000000AF78607B685A6A7B681B8DD318FB60DD
:101410007B68DA6A7B68198F40F2B453994202D82C
:101420007B681B8F01E040F2B453D318FA68D31ADB
:10143000002B08DB7B681A8D7B685A857B68DB6A2A
:10144000FA68D31A17E07B685A6A7B68DB6AD31A9A
:10145000002B04DD7B684FF000025A8509E07B68B1
:10146000DB6A9AB27B685B6A9BB2D31A9AB27B68DA
:101470005A854FF00003184607F11407BD4680BC9B
:10148000704700BF80B584B000AF78600B467B80AA
:101490007B681A8D7B88D3189AB27B681A857B6823
:1014A0001A8D40F668339A4203D97B6840F6683259
:1014B0001A857868FFF7A2FF0346FB60FA6840F2DE
:1014C000D9239A420BDD7B6893F8223043F0020364
:1014D000DAB27B6883F8222078680CF009FA07F109
:1014E0001007BD4680BD00BF80B483B000AF04E0EC
:1014F00000BF02E000BF00E000BF40F26C03C2F298
:1015000000031B8803F101039AB240F26C03C2F29C
:1015100000031A8040F26C03C2F200031B889BB2E6
:101520001BB2002B06DA40F26C03C2F200034FF448
:1015300080521A8048F2E863C2F200031B687B60A5
:101540000BE07B681A8B40F26C03C2F200031B882D
:101550009A42CDD07B68DB687B607B68002BF0D142
:1015600048F2FC63C2F200031B687B600BE07B68FF
:101570001A8B40F26C03C2F200031B889A42B9D066
:101580007B68DB687B607B68002BF0D148F2F063FE
:10159000C2F200031B687B600BE07B681A8B40F291
:1015A0006C03C2F200031B889A42A5D07B68DB68FB
:1015B0007B607B68002BF0D140F26C03C2F2000329
:1015C0001B88184607F10C07BD4680BC704700BF5A
:1015D000B0B588B002AF4FF000037B7348F2EC6304
:1015E000C2F200031B6803F1010248F2EC63C2F28D
:1015F00000031A604FF000033B6148F2E863C2F257
:1016000000031B687B61BDE14FF00003FB734FF0EB
:101610000003BB737B691B7C022B09D17B6993F8A8
:101620004A30062B04D1FB7B03F10103FB73A1E0DD
:101630007B6993F84A300C2B04D1FB7B03F1010347
:10164000FB7397E07B6993F89C30002B2DD07B696E
:10165000D3F8983003F101027B69C3F898207B69C5
:10166000D3F898207B6993F89C3003F1FF314EF258
:101670005C73C0F600035B5C9A427BD37B694FF0DE
:101680000002C3F898207B6993F89C30062B08D899
:101690007B6993F89C3003F10103DAB27B6983F82C
:1016A0009C2078690CF0E2FC64E07B69DB8E1BB265
:1016B000002B06DB7B69DB8E03F101039AB27B69A9
:1016C000DA867B699B6F002B54D07B69DA8E7B694D
:1016D000B3F8483012B21BB29A424BDB7B691B7CD9
:1016E000022B1BD07B69B3F844301BB24FEAE303F3
:1016F0009BB21AB27B69B3F846301BB2D2187B6931
:1017000093F84A3019464EF24C73C0F600035B5C06
:1017100002FA03F39AB27B69A3F848207B694FF081
:101720000002DA867B69B3F85C207B69B3F852303B
:101730009A4238BF13467B817B894FEA53039AB2A2
:101740007B69A3F854207B69B3F854207B691B8F15
:101750009A4207D27B691B8F4FEA43039AB27B6997
:10176000A3F854207B691A8F7B69A3F8522078690B
:101770000CF06AFB7B691B7C062B0DD148F2EC63F5
:10178000C2F200031A687B691B6BD31A282B03D99A
:10179000FB7B03F10103FB737B691B8903F00803E7
:1017A000002B55D07B691B7C042B03D07B691B7CF1
:1017B000072B4DD148F2EC63C2F200031A687B6933
:1017C0001B6BD11A7B69D3F8943003F5242202F6FF
:1017D000B84244F6D353C1F26203A3FB02034FEABB
:1017E0005313994208D9FB7B03F10103FB73BB7BC5
:1017F00003F10103BB732BE048F2EC63C2F2000378
:101800001A687B691B6BD21A7B69D3F894107B69C9
:1018100093F89D30184642F2F843C0F2010303FBEF
:1018200000F3C91844F6D353C1F26203A3FB0103CA
:101830004FEA53139A420BD978690CF0DFFB7B69AE
:1018400093F89D3003F10103DAB27B6983F89D20A0
:101850007B691B7C032B0DD148F2EC63C2F20003C1
:101860001A687B691B6BD31A282B03D9FB7B03F106
:101870000103FB737B691B7C092B0DD148F2EC63E0
:10188000C2F200031A687B691B6BD31AF02B03D9D1
:10189000FB7B03F10103FB73FB7B002B3DD07869DD
:1018A00000F0FCFA3B69002B04D07B69DA683B69E5
:1018B000DA6006E07B69DA6848F2E863C2F20003A6
:1018C0001A607B69D3F89030002B08D07B69D3F87D
:1018D00090307A69526910466FF004019847BB7BDB
:1018E000002B0FD07B69986D7B69596A7A697B6997
:1018F00003F104037C69258B7C69248C0095019499
:101900000CF01CFA7B69DB687B604FF002007969A0
:1019100002F0B8FB7B687B6134E07B6993F834307C
:1019200003F10103DAB27B6983F834207B6993F811
:1019300034207B6993F835309A421ED37B694FF08F
:10194000000283F834207B69D3F88C30002B0AD056
:101950007B69D3F88C307A69526910467969984767
:1019600003467B7302E04FF000037B7397F90D3061
:10197000002B02D178690BF0BBFF7B693B617B696F
:10198000DB687B617B69002B7FF43EAE4FF0000388
:101990003B6148F2FC63C2F200031B687B6135E0E7
:1019A0004FF00003FB7348F2EC63C2F200031A68C5
:1019B0007B691B6BD31AF02B03D9FB7B03F101036B
:1019C000FB73FB7B002B1CD0786900F067FA3B6946
:1019D000002B04D07B69DA683B69DA6006E07B693A
:1019E000DA6848F2FC63C2F200031A607B69DB68C4
:1019F0007B604FF00200796902F044FB7B687B61F9
:101A000004E07B693B617B69DB687B617B69002B60
:101A1000C6D107F11807BD46B0BD00BF90B583B071
:101A200000AF48F2E863C2F200031B687B604BE042
:101A30007B68DB6F002B28D07B68D3F88430002BC9
:101A40000FD07B68D3F884407B685A697B68DB6F72
:101A5000104679681A464FF00003A0470346FB7012
:101A60000BE07B68DB6F4FF0000079681A464FF09F
:101A7000000300F06FF80346FB7097F90330002B6A
:101A800003D17B684FF00002DA677B6893F822305D
:101A900003F00103002B14D07B6893F8223043F04D
:101AA0000203DAB27B6883F8222078680BF020FF0B
:101AB0007B6893F8223023F00303DAB27B6883F863
:101AC00022207B68DB687B607B68002BB0D107F14C
:101AD0000C07BD4690BD00BF80B584B000AF7860F4
:101AE0004FF00003FB730CE07B681B68BB607868F9
:101AF00000F010F803461A46FB7BD318FB73BB6853
:101B00007B607B68002BEFD1FB7B184607F1100749
:101B1000BD4680BD80B584B000AF78604FF0000353
:101B2000FB737B68002B0FD07B685B68002B06D0B3
:101B30007B685B68184607F099FA0346FB734FF021
:101B40000400796802F09EFAFB7B184607F1100743
:101B5000BD4680BD80B584B000AFF860B9607A60E2
:101B6000FB707B68002B09D07B681B89B86819461D
:101B7000FFF788FC786807F079FA08E097F90330F6
:101B8000002B04D1B868FFF757F9034601E04FF086
:101B900000035BB2184607F11007BD4680BD00BFC9
:101BA00080B586B000AF0346FB714FF07F03FB7238
:101BB0004FF00003FB604FF000033B6148F2E86325
:101BC000C2F200031B687B6125E07B695B7CFA79CC
:101BD0009A421DD37B695B7CFA7A9A4218D348F209
:101BE000EC63C2F200031A687B691B6BD21AFB68B4
:101BF0009A420DD348F2EC63C2F200031A687B6983
:101C00001B6BD31AFB607B693B617B695B7CFB725E
:101C10007B69DB687B617B69002BD6D13B69002B3C
:101C200004D038694FF00101FFF7E8F907F1180710
:101C3000BD4680BD80B584B000AF4FF000037B602F
:101C40004FF00003BB6048F2FC63C2F200031B6864
:101C5000FB6018E048F2EC63C2F200031A68FB680C
:101C60001B6BD21A7B689A420AD348F2EC63C2F229
:101C700000031A68FB681B6BD31A7B60FB68BB60B0
:101C8000FB68DB68FB60FB68002BE3D1BB68002BC3
:101C900004D0B8684FF00101FFF7B0F907F1100761
:101CA000BD4680BD80B584B000AF0346FB714FF0E8
:101CB000020002F0C1F9F860FB68002B12D1FFF7B7
:101CC000B9FF4FF0020002F0B7F9F860FB68002B93
:101CD00008D1FB791846FFF763FF4FF0020002F0CE
:101CE000ABF9F860FB68002B6ED0F8684FF000018C
:101CF0004FF0A0020CF09AFBFB684FF040025A74C0
:101D0000FB6840F66832A3F86E20FB684FF00002D3
:101D1000A3F87020FB6840F668321A85FB6840F62D
:101D200068325A85FB684FF000029A72FB684FF0E8
:101D3000FF02DA72FB684FF406721A87FB684FF0F5
:101D40000602A3F84820FB684FF00002A3F84420E5
:101D5000FB684FF00602A3F84620FB684FF6FF72BF
:101D6000DA86FB684FF00102A3F8522000F034F944
:101D7000B860FB68BA685A66FB68BA689A65FB681F
:101D8000BA68DA64FB68BA689A6648F2EC63C2F231
:101D900000031A68FB681A63FB684FF0000283F8BF
:101DA0003420FA6841F65533C0F60003C2F8843097
:101DB000FA684FF45D43C0F26D03C2F89430FB68DB
:101DC0004FF0000283F89D20FB68184607F11007CA
:101DD000BD4680BD80B500AF4FF04000FFF762FF09
:101DE0000346184680BD00BF80B483B000AF786062
:101DF00039607B683A685A6107F10C07BD4680BCC0
:101E0000704700BF80B483B000AF786039607B68F2
:101E10003A68C3F8842007F10C07BD4680BC7047C0
:101E200080B483B000AF786039607B683A68C3F8EB
:101E3000802007F10C07BD4680BC704780B483B09A
:101E400000AF786039607B683A68C3F8902007F18A
:101E50000C07BD4680BC704780B483B000AF78608B
:101E600039607B683A68DA6107F10C07BD4680BCCF
:101E7000704700BF80B485B000AFF860B96013460A
:101E8000FB71FB68BA68C3F88C20FB68FA7983F8A9
:101E9000352007F11407BD4680BC704780B582B07D
:101EA00000AF78607B681B7C002B26D07B681B7C96
:101EB0000A2B22D07B681B7C012B1ED07B68DB6F3A
:101EC000002B08D07B68DB6F184607F0CFF87B68E3
:101ED0004FF00002DA677B685B6F1846FFF7FCFD86
:101EE0007B689B6F1846FFF7F7FD7B684FF0000299
:101EF0005A677B685A6F7B689A6707F10807BD4687
:101F000080BD00BF80B582B000AF786039607B686B
:101F10001A683B689A4205D17B681B68DA687B685F
:101F20001A602BE07B681A6848F2F463C2F200037F
:101F30001A601CE048F2F463C2F200031B68DA681E
:101F40003B689A4208D148F2F463C2F200031B686E
:101F50003A68D268DA6011E048F2F463C2F2000332
:101F60001B68DA6848F2F463C2F200031A6048F2B0
:101F7000F463C2F200031B68002BDBD13B684FF017
:101F80000002DA603868FFF789FF3B681B7C0A2B88
:101F900016D03B681B7C012B12D03B6893F8223093
:101FA00003F00103002B0BD03B6893F8223043F081
:101FB0000203DAB23B6883F8222038680BF098FC01
:101FC0003B681B7C012B3B684FF000021A7407F141
:101FD0000807BD4680BD00BF80B400AF40F2680373
:101FE000C2F200031A6848F2EC63C2F200031B68F5
:101FF000D21840F26803C2F200031A6040F268038C
:10200000C2F200031B681846BD4680BC704700BF83
:1020100080B584B000AF03463960FB80386808F0B3
:102020002FFAF860FB68002B0ED0FB681B8D002B8D
:102030000AD0FB681B8DA3F128037B817A89FB887A
:102040009A4238BF1346FB80FB88184607F11007F9
:10205000BD4680BDB0B588B002AF786039607B689E
:102060005A6842F69863C2F200031A607B685C68A3
:1020700042F69863C2F200031B681B889BB21846A5
:1020800007F0C2F903464FEA13239BB203F00F0394
:102090004FEA8303E21842F69463C2F200031A6027
:1020A00042F69863C2F200031B681B889BB2184675
:1020B00007F0AAF903464FEA13239BB203F00F037C
:1020C0009BB24FEA83039BB2C3F100039BB29BB266
:1020D0001BB27868194606F04FFF0346002B03D168
:1020E0007B681B89132B03D8786806F0BFFF66E373
:1020F00042F69863C2F200031B6803F1100318460E
:10210000396803F00DFF0346002B12D142F69863A5
:10211000C2F200031B681C694FF0704007F0A2F97F
:1021200003461C404FF0604007F09CF903469C4278
:1021300003D1786806F09AFF41E342F69463C2F255
:1021400000031B689B899BB2184607F05DF90346A4
:102150004FEA13339BB2BB72BB7A9BB21A464FEA6B
:102160008232D31A4FEA83039BB29BB21BB27868C8
:10217000194606F001FF0346002B03D0786806F0ED
:1021800075FF1CE342F69463C2F200031C6842F63A
:102190009463C2F200031B681B889BB2184607F0C9
:1021A00033F90346238042F69463C2F200031C68AD
:1021B00042F69463C2F200031B685B889BB2184628
:1021C00007F022F90346638042F69463C2F20003EB
:1021D0001C6842F69463C2F200031B685B681846F1
:1021E00007F040F903466360626842F69C63C2F2FE
:1021F00000031A6042F69463C2F200031C6842F6C0
:102200009463C2F200031B689B68184607F02AF922
:102210000346A360A26842F6A063C2F200031A60FC
:1022200042F69463C2F200031C6842F69463C2F261
:1022300000031B68DB899BB2184607F0E5F80346EC
:10224000E38142F69463C2F200031B689B899BB250
:10225000184607F0D9F80346DBB203F03F03DAB2C1
:1022600042F6A463C2F200031A707B681A8942F630
:10227000A463C2F200031B7803F00303002B0CBF1E
:1022800000230123DBB2D3189AB242F6A663C2F24E
:1022900000031A804FF000033B6148F2E863C2F28A
:1022A00000031B687B6143E07B691A8C42F69463F0
:1022B000C2F200031B681B889BB29A4233D17B6930
:1022C0001A8B42F69463C2F200031B685B889BB2D0
:1022D0009A4228D17B695A6842F69863C2F2000399
:1022E0001B68DB689A421ED17B691A6842F69863C4
:1022F000C2F200031B681B699A4214D13B69002B90
:102300001AD07B69DA683B69DA6048F2E863C2F2A6
:1023100000031A687B69DA6048F2E863C2F20003DE
:102320007A691A6008E07B693B617B69DB687B61E5
:102330007B69002BB8D100E000BF7B69002B40F027
:10234000878048F2FC63C2F200031B687B6133E0C4
:102350007B691A8C42F69463C2F200031B681B88E7
:102360009BB29A4225D17B691A8B42F69463C2F2E2
:1023700000031B685B889BB29A421AD17B695A683A
:1023800042F69863C2F200031B68DB689A4210D1E0
:102390007B691A6842F69863C2F200031B681B69E6
:1023A0009A4206D1786900F01DFB786806F05EFE5F
:1023B00005E27B69DB687B617B69002BC8D14FF04C
:1023C00000033B6148F2F063C2F200031B68FB604C
:1023D0003BE0FB68002B0DD0FB681B68002B09D08D
:1023E000FB681A6842F69863C2F200031B681B6917
:1023F0009A4225D1FB681A8B42F69463C2F200031D
:102400001B685B889BB29A421AD13B69002B10D0A3
:10241000FB68DA683B69DA6048F2F063C2F20003F5
:102420001A68FB68DA6048F2F063C2F20003FA68E7
:102430001A60F86800F0C8F9786806F017FEBEE187
:10244000FB683B61FB68DB68FB60FB68002BC0D16D
:102450007B69002B00F06F8142F68063C2F20003BB
:102460004FF000021A607B681A8942F68063C2F25C
:1024700000039A817B685A6842F68063C2F20003C7
:102480009A6042F68063C2F200037A685A6042F6AC
:102490009463C2F200031A6842F68063C2F200033A
:1024A0001A6142F6AC63C2F200034FF000021A60F8
:1024B00042F6A863C2F200034FF000021A707B6973
:1024C000DB6F002B2DD07B69D3F88430002B0FD02D
:1024D0007B69D3F884407B695A697B69DB6F10465E
:1024E00079691A464FF00003A0470346FB720BE0E0
:1024F0007B69DB6F4FF0000079691A464FF00003EB
:10250000FFF728FB0346FB7297F90B30002B04D131
:102510007B694FF00002DA6703E0786806F0A6FDF9
:102520004DE148F20073C2F200037A691A607869DB
:1025300000F0EAFA0346FB7297F90B3013F1050F2E
:1025400000F0DB8042F6A863C2F200031B7803F0C0
:102550000803002B1AD07B69D3F89030002B08D0E9
:102560007B69D3F890307A69526910466FF00501A3
:10257000984748F2E860C2F200007969FFF7C2FCB0
:102580004FF00200796901F07DFDB6E042F6A863E4
:10259000C2F200031B7803F01003002B0CD048F2AA
:1025A000E860C2F200007969FFF7ACFC4FF002006E
:1025B000796901F067FDA0E04FF00003FB727B69D1
:1025C000B3F86C30002B15D07B69D3F88030002B2A
:1025D0000DD07B69D3F880307A6951697A69B2F895
:1025E0006C200846796998470346FB7202E04FF079
:1025F0000003FB7242F6AC63C2F200031B68002BBF
:1026000049D042F6A463C2F200031B7803F008032A
:10261000002B0ED042F6AC63C2F200031A6842F6F9
:10262000AC63C2F200031B685B7B43F00103DBB2C7
:1026300053737B69D3F88430002B12D07B69D3F8B5
:1026400084407B695A6942F6AC63C2F200031B689E
:10265000104679691A464FF00003A0470346FB7203
:102660000EE042F6AC63C2F200031B684FF00000BC
:1026700079691A464FF00003FFF76CFA0346FB72C4
:1026800097F90B30002B06D042F6AC63C2F2000380
:102690001A687B69DA6742F6A863C2F200031B7806
:1026A00003F02003002B1ED07B69D3F88430002B6D
:1026B0000ED07B69D3F884407B695B6918467969E1
:1026C0004FF000024FF00003A0470346FB720AE000
:1026D0004FF0000079694FF000024FF00003FFF760
:1026E00039FA0346FB7248F20073C2F200034FF05E
:1026F00000021A6078690BF0FBF848F20073C2F22E
:1027000000034FF000021A6042F68063C2F2000339
:102710005B68002B53D042F68063C2F200035B6813
:10272000184606F0A3FC42F68063C2F200034FF0A5
:1027300000025A6043E042F69463C2F200031B6851
:102740009B899BB2184606F05FFE034603F0040324
:10275000002B31D142F6A063C2F20003186842F6A2
:10276000A663C2F200031B881A4642F69C63C2F2BB
:1027700000031B68D11842F69863C2F200031B687D
:1027800003F1100242F69863C2F200031B6803F1E2
:102790000C0442F69463C2F200031B685B889DB28E
:1027A00042F69463C2F200031B681B889BB200953B
:1027B000019323460BF0C2FA786806F057FC07F144
:1027C0001807BD46B0BD00BFB0B586B002AF786097
:1027D00042F6A463C2F200031B7803F01003002B3F
:1027E00034D042F6A063C2F200031B6803F101007B
:1027F00042F6A663C2F200031B881A4642F69C63A7
:10280000C2F200031B68D11842F69863C2F20003BB
:102810001B6803F1100242F69863C2F200031B68C2
:1028200003F10C0442F69463C2F200031B685B8858
:102830009DB242F69463C2F200031B681B889BB2F0
:102840000095019323460BF079FAC2E042F6A463A7
:10285000C2F200031B7803F00203002B00F0B980E2
:102860007B685B7C1846FFF71DFAF860FB68002B5D
:1028700002D14FF0FF03AEE042F69863C2F20003CC
:102880001B6803F11003002B06D042F69863C2F2D6
:1028900000031B681B6901E04FF00003FA68136036
:1028A0007B681A8BFB681A8342F69863C2F20003B6
:1028B0001B6803F10C03002B06D042F69863C2F2AA
:1028C00000031B68DB6801E04FF00003FA68536007
:1028D00042F69463C2F200031B681B889AB2FB683D
:1028E0001A84FB684FF003021A7442F69C63C2F22A
:1028F00000031B6803F10102FB685A62FB685A6A15
:10290000FB68DA6242F69463C2F200031B68DB895B
:102910009AB2FB68A3F85C20FB68B3F85C20FB6804
:10292000A3F8542042F69C63C2F200031B6803F133
:10293000FF32FB681A667B685A69FB685A617B68DC
:10294000DA69FB68DA617B681A8940F299131340EF
:102950009AB2FB681A8148F2E863C2F200031A686F
:10296000FB68DA6048F2E863C2F20003FA681A60B2
:10297000F86801F069FAFB681A8FFB6803F1040339
:1029800010461946FFF744FB03461A46FB681A87B0
:102990004FF0000300934FF001030193F8684FF0EC
:1029A00000014FF000024FF012030AF051FC034601
:1029B000FB7297F90B30002B06D0F8684FF000013E
:1029C000FEF71CFBFB7A06E0F8680AF091FF03466D
:1029D00001E04FF000035BB2184607F11007BD4657
:1029E000B0BD00BFB0B584B002AF786042F6A4635A
:1029F000C2F200031B7803F00403002B02D04FF057
:102A000000037BE042F6A463C2F200031B7803F0EC
:102A10000203002B4BD042F69C63C2F200031A68FB
:102A20007B685B6AD31A002B51DB42F69C63C2F2CF
:102A300000031A687B68596A7B681B8DCB18D31A10
:102A4000002B44DC42F6A063C2F20003186842F691
:102A5000A663C2F200031B881A4642F69C63C2F2C8
:102A600000031B68D11842F69863C2F200031B688A
:102A700003F1100242F69863C2F200031B6803F1EF
:102A80000C0442F69463C2F200031B685B889DB29B
:102A900042F69463C2F200031B681B889BB2009548
:102AA000019323460BF04AF94FF0000326E042F66B
:102AB000A463C2F200031B7803F00103002B06D0CD
:102AC00048F2EC63C2F200031A687B681A6342F6AC
:102AD000A663C2F200031B88002B0DD07B6893F81D
:102AE000223043F00203DAB27B6883F82220786850
:102AF0000AF0FEFE034601E04FF000035BB2184609
:102B000007F10807BD46B0BDB0B588B002AF786028
:102B10004FF00003FB754FF00003BB7542F6A46352
:102B2000C2F200031B7803F00403002B4BD07B6838
:102B30001B7C022B0CD17B689A6D42F6A063C2F21B
:102B400000031B689A421DD14FF00103FB7519E089
:102B500042F69C63C2F200031A687B685B6AD31A70
:102B6000002B0FDB42F69C63C2F200031A687B68FD
:102B7000596A7B681B8DCB18D31A002B02DC4FF0EF
:102B80000103FB75FB7D002B19D042F6A863C2F24E
:102B900000031B7843F00803DAB242F6A863C2F2DE
:102BA00000031A707B6893F8223023F00103DAB235
:102BB0007B6883F822204FF0FA0300F00EBC4FF040
:102BC000000300F00ABC42F6A463C2F200031B78C3
:102BD00003F00203002B16D07B681B7C022B12D063
:102BE0007B681B7C032B0ED07B6893F8223043F06C
:102BF0000203DAB27B6883F8222078680AF078FE54
:102C00004FF00003E9E348F2EC63C2F200031A68F4
:102C10007B681A637B684FF0000283F89D20786818
:102C200001F012F97B681B7CA3F10203072B00F271
:102C3000C38301A252F823F0592C0008672E000824
:102C40000530000841300008A331000805300008B5
:102C50008D3200087333000842F6A463C2F2000309
:102C60001B7803F01003002B00F0C08042F6A46331
:102C7000C2F200031B7803F00203002B00F0B680C1
:102C80007B689B6F1B695B68184606F0EBFB03468D
:102C900003F1010242F6A063C2F200031B689A42EC
:102CA00040F0A4807B68B3F86E3003F101039AB260
:102CB0007B68A3F86E2042F69C63C2F200031B6897
:102CC00003F101027B685A627B685A6A7B68DA62A8
:102CD00042F6A063C2F200031A687B68DA6442F627
:102CE0009463C2F200031B68DB899AB27B68A3F885
:102CF0005C2042F69C63C2F200031B6803F1FF32C2
:102D00007B681A667B684FF004021A747B681A8F1E
:102D10007B6803F1040310461946FFF779F903466F
:102D20001A467B681A877B681B8F1A464FEA820215
:102D3000D3184FEA43039AB27B68A3F854207B6808
:102D4000B3F85230012B05D17B681B8F4FEA430348
:102D50009BB201E07B681B8F7A68A2F852307B68D7
:102D6000B3F8703003F1FF339AB27B68A3F8702098
:102D70007B689B6F3B613B691A687B689A677B68DD
:102D80009B6F002B04D17B684FF6FF72DA8608E058
:102D90007B684FF00002DA867B684FF0000283F810
:102DA0004A203869FEF7B6FE7B68D3F88830002BDE
:102DB0000CD07B68D3F888307A68526910467968FD
:102DC0004FF0000298470346BB7502E04FF0000346
:102DD000BB757B6893F8223043F00203DAB27B685C
:102DE00083F8222078680AF083FDE7E242F6A463C4
:102DF000C2F200031B7803F01003002B00F0DE8208
:102E000042F6A063C2F20003186842F6A663C2F25B
:102E100000031B881A4642F69C63C2F200031B683B
:102E2000D11842F69863C2F200031B6803F1100246
:102E300042F69863C2F200031B6803F10C0442F6E9
:102E40009463C2F200031B685B889DB242F69463F0
:102E5000C2F200031B681B889BB2009501932346B6
:102E60000AF06CFFAAE242F6A463C2F200031B78E8
:102E700003F01003002B00F0AB807B68DB6C6FEA83
:102E8000030242F6A063C2F200031B68D318002BB2
:102E900069DB42F6A063C2F200031A687B689B6D8F
:102EA000D31A002B5FDC7B684FF004021A747B6836
:102EB000DB69002B0BD07B68DB697A6852691046AE
:102EC00079684FF0000298470346BB7502E04FF067
:102ED0000003BB7597F91630002B07D078684FF0C8
:102EE0000101FEF78BF84FF0FB0376E27B68B3F845
:102EF0005230FB81786800F077FA7B68B3F86C3069
:102F0000002B08D07B68B3F86C3003F1FF339AB222
:102F10007B68A3F86C20FB89012B05D17B681B8F94
:102F20004FEA43039BB201E07B681B8F7A68A2F8EB
:102F3000523042F6A863C2F200031B7803F020036C
:102F4000002B43D07B6893F8223043F00203DAB2BF
:102F50007B6883F8222078680AF0CAFC7B684FF00F
:102F600007021A7432E042F6A063C2F20003186846
:102F700042F6A663C2F200031B881A4642F69C631F
:102F8000C2F200031B68D11842F69863C2F2000334
:102F90001B6803F1100242F69863C2F200031B683B
:102FA00003F10C0442F69463C2F200031B685B88D1
:102FB0009DB242F69463C2F200031B681B889BB269
:102FC0000095019323460AF0B9FEF9E100BFF7E14D
:102FD00042F6A463C2F200031B7803F00203002B45
:102FE00000F0EE817B685B6A03F1FF3242F69C637E
:102FF000C2F200031B689A4240F0E28178680AF04E
:1030000059FFDDE1786800F0EFF942F6A863C2F2FB
:1030100000031B7803F02003002B00F0D3817B68B2
:1030200093F8223043F00203DAB27B6883F822205F
:1030300078680AF05DFC7B684FF007021A74C1E102
:10304000786800F0D1F942F6A863C2F200031B7859
:1030500003F02003002B00F08B8042F6A463C2F241
:1030600000031B7803F01003002B70D07B689A6D6F
:1030700042F6A063C2F200031B689A4267D17B68E4
:1030800093F8223043F00203DAB27B6883F82220FF
:1030900078680AF02DFC7868FEF700FF48F2E863D4
:1030A000C2F200031A687B689A420BD148F2E863C7
:1030B000C2F200031B68DA6848F2E863C2F2000358
:1030C0001A602EE048F2E863C2F200031A6848F280
:1030D000F463C2F200031A601CE048F2F463C2F227
:1030E00000031B68DA687B689A4208D148F2F463EF
:1030F000C2F200031B687A68D268DA6011E048F215
:10310000F463C2F200031B68DA6848F2F463C2F2A7
:1031100000031A6048F2F463C2F200031B68002B3C
:10312000DBD17B684FF00002DA607B684FF00A0267
:103130001A7448F2FC63C2F200031A687B68DA6012
:1031400048F2FC63C2F200037A681A603CE17B68D3
:1031500093F8223043F00203DAB27B6883F822202E
:1031600078680AF0C5FB7B684FF008021A742BE1FF
:1031700042F6A463C2F200031B7803F01003002B95
:1031800000F022817B689A6D42F6A063C2F20003D0
:103190001B689A4240F018817B684FF006021A744F
:1031A00012E1786800F020F942F6A863C2F2000349
:1031B0001B7803F02003002B00F008817B6893F854
:1031C000223043F00203DAB27B6883F82220786869
:1031D0000AF08EFB7868FEF761FE48F2E863C2F2FF
:1031E00000031A687B689A420BD148F2E863C2F286
:1031F00000031B68DA6848F2E863C2F200031A6051
:103200002EE048F2E863C2F200031A6848F2F46361
:10321000C2F200031A601CE048F2F463C2F2000339
:103220001B68DA687B689A4208D148F2F463C2F2FC
:1032300000031B687A68D268DA6011E048F2F46330
:10324000C2F200031B68DA6848F2F463C2F20003BA
:103250001A6048F2F463C2F200031B68002BDBD152
:103260007B684FF00002DA607B684FF00A021A7444
:1032700048F2FC63C2F200031A687B68DA6048F225
:10328000FC63C2F200037A681A609FE0786800F07D
:10329000ABF842F6A463C2F200031B7803F01003FC
:1032A000002B00F095807B689A6D42F6A063C2F215
:1032B00000031B689A4240F08B807868FEF7EEFDB1
:1032C00048F2E863C2F200031A687B689A420BD1A5
:1032D00048F2E863C2F200031B68DA6848F2E86368
:1032E000C2F200031A602EE048F2E863C2F2000363
:1032F0001A6848F2F463C2F200031A601CE048F254
:10330000F463C2F200031B68DA687B689A4208D152
:1033100048F2F463C2F200031B687A68D268DA608C
:1033200011E048F2F463C2F200031B68DA6848F265
:10333000F463C2F200031A6048F2F463C2F20003BD
:103340001B68002BDBD17B684FF00002DA607B68E2
:103350004FF00A021A7448F2FC63C2F200031A68C2
:103360007B68DA6048F2FC63C2F200037A681A6094
:103370002EE0786800F038F842F6A463C2F2000349
:103380001B7803F01003002B24D07B689A6D42F663
:10339000A063C2F200031B689A421BD142F6A863E5
:1033A000C2F200031B7843F01003DAB242F6A863BE
:1033B000C2F200031A700DE000BF0CE000BF0AE08B
:1033C00000BF08E000BF06E000BF04E000BF02E06D
:1033D00000BF00E000BF4FF000035BB2184607F1EA
:1033E0001807BD46B0BD00BFF0B58BB000AF786028
:1033F0004FF00003BB6142F6A463C2F200031B78E6
:1034000003F01003002B00F0DD827B68B3F85C3022
:103410001A467B685B6ED3187B617B681A6E42F636
:103420009C63C2F200031B68D31A002B27DB7B6866
:103430001A6E42F69C63C2F200031B689A4209D1DD
:103440007B685A6E42F6A063C2F200031B68D31A6F
:10345000002B14DB7B685A6E42F6A063C2F20003B5
:103460001B689A4232D142F69463C2F200031B6891
:10347000DB899AB27B68B3F85C309A4226D942F66F
:103480009463C2F200031B68DB899AB27B68A3F8DD
:103490005C2042F69C63C2F200031A687B681A66DD
:1034A00042F6A063C2F200031A687B685A667B6822
:1034B000B3F85C30002B09D07B6893F89C30002B6C
:1034C00004D07B684FF0000283F89C2042F6A06392
:1034D000C2F200031A687B68DB6CD31A002B66DC2F
:1034E0007B684FF00002A3F86C2042F6A663C2F29C
:1034F00000031B88002B50D17B685A6E7B68B3F8A1
:103500005C30D2187B699A4247D17B68DB8E1BB254
:10351000002B42DB7B68DA6C42F6A063C2F2000348
:103520001B689A4239D14FF00103BB617B6893F865
:10353000503003F101027B6893F850309A4208DD65
:103540007B6893F8503003F10103DAB27B6883F8AB
:1035500050207B6893F85030032B16D97B68B3F862
:1035600052207B681B8FD3189AB27B68B3F8523015
:103570009A4212D97B68B3F852207B681B8FD3180C
:103580009AB27B68A3F8522007E07B6893F850302A
:10359000032B02D178680AF0D5FCBB69002B40F000
:1035A00075817B684FF0000283F850206EE17B68E4
:1035B000DB6C6FEA030242F6A063C2F200031B68F1
:1035C000D318002BC0F21B8142F6A063C2F20003A5
:1035D0001A687B689B6DD31A002B00F310817B68FF
:1035E00093F8223003F00403002B0ED07B6893F88D
:1035F000223023F00403DAB27B6883F822207B6850
:10360000B3F854207B68A3F852207B684FF0000287
:1036100083F84A207B68B3F844301BB24FEAE303D7
:103620009BB29AB27B68B3F846309BB2D3189BB278
:103630009AB27B68A3F8482042F6A063C2F2000366
:103640001B689AB27B68DB6C9BB2D31A9AB27B6818
:10365000A3F86C207B68B3F86E207B68B3F86C30FD
:10366000D3189AB27B68A3F86E207B684FF00002F3
:1036700083F8502042F6A063C2F200031A687B6808
:10368000DA647B681B7C032B7BD97B68B3F8522000
:103690007B68B3F854309A4216D27B68B3F8522054
:1036A0007B681B8FD3189AB27B68B3F852309A426A
:1036B00067D97B68B3F852207B681B8FD3189AB206
:1036C0007B68A3F852205CE07B68B3F852207B68EB
:1036D0001B8F7968098F01FB03F17B68B3F85230C7
:1036E00091FBF3F39BB2D3187B827B68B3F8523023
:1036F0007A8A9A4245D97B687A8AA3F8522040E0B8
:103700007B689B6FFB607B689B6F1A687B689A671E
:10371000FB685B68184605F001FD7B68B3F86C3008
:10372000002B14D0FB681B699B899BB2184605F0DF
:103730006BFE034603F00103002B08D07B68B3F84F
:103740006C3003F1FF339AB27B68A3F86C207B687E
:10375000B3F87040FB685B68184605F0DFFC034671
:10376000E31A9AB27B68A3F87020F868FEF7D2F9E2
:103770007B68B3F87030002B04D07B689B6F002B04
:1037800000E000BF7B689B6F002B25D07B689B6FA0
:103790001B695B68184605F065FE04467B689B6FF5
:1037A0009B891D467B689B6F1B699B899BB2184652
:1037B00005F02AFE034603F00303002B0CBF002391
:1037C0000123DBB2EB18E21842F6A063C2F2000359
:1037D0001B68D31A002B93DD7B689B6F002B04D1F1
:1037E0007B684FF6FF72DA8603E07B684FF00002D9
:1037F000DA867B684FF0000283F8342046E07B686D
:103800004FF00002A3F86C2040E07B685B6FFB6028
:103810007B685B6F1A687B685A67FB685B68184651
:1038200005F07CFC7B68B3F86C30002B14D0FB688F
:103830001B699B899BB2184605F0E6FD034603F021
:103840000103002B08D07B68B3F86C3003F1FF3321
:103850009AB27B68A3F86C207B68B3F87040FB6871
:103860005B68184605F05AFC0346E31A9AB27B6877
:10387000A3F87020F868FEF74DF97B68B3F8703054
:10388000002B04D07B689B6F002B00E000BF7B689F
:103890005B6F002B2FD042F6A063C2F200031C68BE
:1038A0007B685B6F1B695B68184605F0DBFD0546AE
:1038B0007B685B6F9B891E467B685B6F1B699B897E
:1038C0009BB2184605F0A0FD034603F00303002B4E
:1038D0000CBF00230123DBB2F318EB18E31A002B13
:1038E00009DB42F6A063C2F200031A687B689B6D95
:1038F000D31A002B89DD7B68DB6B002B62D07B68E1
:103900001A6C42F6A063C2F200031B68D31A002BA4
:1039100058DA48F2EC63C2F200031B689AB27B6883
:10392000DB6B9BB2D31A9BB2FB83FA8B7B68B3F839
:1039300044301BB24FEAE3039BB29BB2D31A9BB253
:10394000FB837B68B3F844309AB2FB8BD3189BB2ED
:103950009AB27B68A3F84420B7F91E30002B04DA32
:10396000FB8BC3F100039BB2FB83FA8B7B68B3F83C
:1039700046301BB24FEAA3039BB29BB2D31A9BB251
:10398000FB837B68B3F846309AB2FB8BD3189BB2AB
:103990009AB27B68A3F846207B68B3F844301BB228
:1039A0004FEAE3039BB29AB27B68B3F846309BB20E
:1039B000D3189BB29AB27B68A3F848207B684FF07B
:1039C0000002DA6342F6A663C2F200031B88002BF2
:1039D00000F011827B685A6A42F69C63C2F20003CF
:1039E0001B686FEA0303D318002BC0F29A807B6830
:1039F0005A6A42F6A663C2F200031B88194642F6D1
:103A00009C63C2F200031B68CB18D31A03F10103B5
:103A1000002B00F386807B685A6A42F69C63C2F2F0
:103A200000031B68D31A3B6242F68063C2F20003B4
:103A30005B687B6242F68063C2F200035B685B896D
:103A40001A463B6A9A422BDA42F68063C2F20003BE
:103A50005B681A893B6A9BB2D31A7B810EE07B6A52
:103A60005B893A6AD31A3B627B6A7A891A817B6ADC
:103A70004FF000025A817B6A1B687B627B6A5B891C
:103A80001A463B6A9A42EADB3B6A9BB2C3F10003E7
:103A90009BB29BB21BB2786A194605F06DFA0FE033
:103AA00042F68063C2F200035A683B6A9BB2C3F1DC
:103AB00000039BB29BB21BB21046194605F05CFA9C
:103AC0007B6A5A6842F68063C2F200039A6042F64B
:103AD0008063C2F200039A8942F69C63C2F200033B
:103AE0001B6899B27B685B6A9BB2CB1A9BB2D318F6
:103AF0009AB242F68063C2F200039A8142F6806372
:103B0000C2F200031A697B68596A42F69C63C2F2EA
:103B10000003196042F69C63C2F200031B68536005
:103B200015E042F69C63C2F200031A687B685B6A88
:103B3000D31A002B0BDA7B6893F8223043F0020390
:103B4000DAB27B6883F82220786809F0D1FE42F669
:103B50009C63C2F200031A687B685B6AD31A002B6D
:103B6000C0F2458142F69C63C2F200031A687B688A
:103B7000596A7B681B8DCB18D31A03F10103002B04
:103B800000F335817B685A6A42F69C63C2F20003F7
:103B90001B689A4240F0268142F68063C2F200031D
:103BA0009C8942F68063C2F200031B699B899BB229
:103BB000184605F029FC034603F00303002B0CBF55
:103BC00000230123DBB2E3189AB242F6A663C2F2E5
:103BD00000031A807B681A8D42F6A663C2F20003C6
:103BE0001B889A4280F0868042F68063C2F200030E
:103BF0001B699B899BB2184605F006FC034603F03F
:103C00000103002B27D042F68063C2F200031C6937
:103C100042F68063C2F200031B699B899DB24FF696
:103C2000C07005F0D9FB03462B409DB242F680637D
:103C3000C2F200031B699B899BB2184605F0E4FBA6
:103C4000034603F03E039BB2184605F0C5FB03464E
:103C50002B439BB2A3817B681A8D42F68063C2F22C
:103C600000039A8142F68063C2F200031B699B89BC
:103C70009BB2184605F0C8FB034603F00203002B75
:103C80000CD042F68063C2F200039B8903F1FF333C
:103C90009AB242F68063C2F200039A8142F68063D0
:103CA000C2F200035A6842F68063C2F200039B89A5
:103CB0001046194605F0FAF842F68063C2F2000396
:103CC0009C8942F68063C2F200031B699B899BB208
:103CD000184605F099FB034603F00303002B0CBFC5
:103CE00000230123DBB2E3189AB242F6A663C2F2C4
:103CF00000031A8042F6A663C2F200031B881A462C
:103D000042F69C63C2F200031B68D2187B685A62B9
:103D10007B681A8D42F6A663C2F200031B88D31A91
:103D20009AB27B681A857868FDF768FB42F6806373
:103D3000C2F200035B681B89002B10D042F680633F
:103D4000C2F200035A6842F6AC63C2F200031A6082
:103D500042F68063C2F200034FF000025A6042F65E
:103D60008063C2F200031B699B899BB2184605F071
:103D70004BFB034603F00103002B0CD042F6A86373
:103D8000C2F200031B7843F02003DAB242F6A863C4
:103D9000C2F200031A707B6893F8223003F001032B
:103DA000002B15D07B6893F8223023F00103DAB2A0
:103DB0007B6883F822207B6893F8223043F002036B
:103DC000DAB27B6883F82220786809F091FD37E049
:103DD0007B6893F8223043F00103DAB27B6883F802
:103DE00022202DE0786809F039FD00BF28E07868CE
:103DF00009F034FD24E042F69C63C2F200031A6825
:103E00007B685B6AD31A002B0EDB42F69C63C2F21E
:103E100000031A687B68596A7B681B8DCB18D31A1C
:103E200003F10103002B0BDD7B6893F8223043F094
:103E30000203DAB27B6883F82220786809F058FD23
:103E400007F12C07BD46F0BD80B586B000AF7860A5
:103E500042F69463C2F200031B6803F114033B6152
:103E600042F69463C2F200031B689B899BB218461A
:103E700005F0CAFA03464FEA13339BB2052B78D9F3
:103E800042F69463C2F200031B689B899BB21846FA
:103E900005F0BAFA03464FEA13339BB2A3F10503C8
:103EA0009BB24FEA8303FB814FF00003FB8256E095
:103EB000FB8A3A69D3181B787B737B7B012B04D078
:103EC000022B07D0002B4FD037E0FB8A03F1010310
:103ED000FB8244E0FB8A03F101033A69D3181B78A3
:103EE000042B43D1FB8A03F10402FB899A423DDC97
:103EF000FB8A03F102033A69D3181B784FEA0323C4
:103F00009AB2FB8A03F103033969CB181B78134378
:103F10009BB27B817A8940F2B4539A4204D87B8960
:103F2000002B01D07B8901E040F2B4537A681387FB
:103F3000FB8A03F10403FB8211E0FB8A03F1010316
:103F40003A69D3181B78002B12D0FB8A03F10103C6
:103F50003A69D3181B781A46FB8AD318FB82FA8A6F
:103F6000FB899A42A4D304E000BF02E000BF00E056
:103F700000BF07F11807BD4680BD00BF80B483B005
:103F800000AF4FF000037B8003E07B8803F1010367
:103F90007B807B88082BF8D942F6D463C2F20003F9
:103FA00003F1030323F003037B604FF000037B80E6
:103FB00039E07A8842F6B063C2F200034FF00001A4
:103FC00043F822104FF000033B801EE07A8842F64F
:103FD000B063C2F2000353F822207B681A607A882B
:103FE00042F6B063C2F20003796843F822107A887F
:103FF0004EF26473C0F6000333F812307A68D318B7
:104000007B603B8803F101033B807A884EF2787332
:10401000C0F6000333F812303A889A42D6D37B8830
:1040200003F101037B807B88082BC2D907F10C07C1
:10403000BD4680BC704700BF80B485B000AF03466A
:10404000FB71FB79082B02D94FF0000314E0FA79D9
:1040500042F6B063C2F2000353F82230FB60FB6803
:10406000002B08D0FA79FB68196842F6B063C2F2F7
:10407000000343F82210FB68184607F11407BD46F9
:1040800080BC704780B485B000AF03463960FB71D7
:104090003B68002B13D03B68FB60FA7942F6B063B3
:1040A000C2F2000353F82220FB681A60FA7942F644
:1040B000B063C2F20003F96843F8221000E000BFC9
:1040C00007F11407BD4680BC704700BF80B584B0BF
:1040D00000AF78604FF00103FB73FB7B002B11D026
:1040E0007B685B6A1B7A002B03D0786800F086F847
:1040F0000BE0786800F05AF87B685B6A4FF0640266
:104100001A7202E0786800F079F807F11007BD46EE
:1041100080BD00BF80B584B000AF786039607B6837
:1041200093F82F301A467B6893F830304FEA032318
:104130001A434FF48073CAF6FE13D318184605F0DD
:1041400073F90346184605F08DF9F8607B685B6AE1
:104150005B7AFA68D318FB60FB684FEA03434FEAC7
:10416000134343F0294343F47E03FB60FA684FF0A6
:10417000FF03CAF6FE139A4203D8FB6803F57E4399
:10418000FB60FA684FF6FF63CAF6FE139A4203D942
:10419000FB68A3F57E43FB60F86805F045F902462D
:1041A0003B681A6007F11007BD4680BD90B587B027
:1041B00004AF78607B6803F12B027B6803F12B046A
:1041C0007B685B6A7968496A00934EF2CC73C0F6EB
:1041D0000003019302914FF00103039378681146A5
:1041E0004EF2C472C0F60002234604F025FC0346DA
:1041F000184607F10C07BD4690BD00BF80B584B0DE
:1042000000AF78607B685B6AFB604FF00003FB7275
:10421000786805F07BFA0346002B02D0786805F039
:104220005BFA7B684FF000025A607B684FF0000237
:104230009A607B684FF00002DA60FB68002B15D1B2
:104240004FF00A00FCF70CFAF860FB68002B02D173
:104250004FF0FF0332E0F8684FF000014FF00A0220
:104260000AF0E4F87B68FA685A6217E0FB684FF0DE
:1042700000021A71FB684FF00002DA80FB684FF011
:1042800000025A71FB6818464FF000014FF004021B
:104290000AF0CCF8FB684FF000021A72FB687868ED
:1042A0001946FFF737FFFB685B7A03F10103DAB2C7
:1042B000FB685A72786800F007F8FB7A5BB2184620
:1042C00007F11007BD4680BD80B485B000AF7860AF
:1042D0007B685B6AFB60FB684FF001021A71FB6848
:1042E0004FF000025A717B6893F830304FEA036256
:1042F0007B6893F82E304FEA03431A437B6893F8A8
:104300002D304FEA03231A437B6893F82F301A436A
:104310007B685B6A002B03D07B685B6A5B7A01E099
:104320004FF00003D1184CF6CD43CCF6CC43A3FBA1
:1043300001234FEAD30213464FEA83039B184FEA47
:104340004303CA1A92B2FB68DA80FB685B7A0A2BD5
:1043500003D9FB684FF41672DA8007F11407BD46E3
:1043600080BC704780B586B000AF786039607B68EC
:104370005B6A002B70D07B685B6A1B79002B6BD06B
:104380007B6893F82B303B727B6893F82C307B7200
:104390007B6893F82D30BB727B6893F82E30FB72EC
:1043A0007B6893F82F303B737B6893F830307B73D6
:1043B0003A6807F1140302F10E02106818603A68B7
:1043C00007F1100302F11802106818607B685B6A3D
:1043D0001B79012B09D07B685B6A1B79022B22D1E8
:1043E0007B685B6A5B79002B1DD17A697B685B6AAD
:1043F0001B689A4213D03A697B685B6A1B689A42D1
:1044000029D13B6803F1080307F108021046194659
:104410004FF0060209F00CFF0346002B1BD0786812
:10442000FFF7ECFE17E07A697B685B6A1B689A42CB
:1044300012D13B6803F1080307F108021046194640
:104440004FF0060209F0F4FE0346002B04D0786812
:10445000FFF73CFE00E000BF07F11807BD4680BD36
:1044600080B586B000AF786039604FF000037B61A3
:104470003B68002B7B685B685B68FB60FB689B8824
:104480009BB2002B20D17B685B683B61FB681A689C
:104490007B685A603B695A687B6803F108031046E1
:1044A00019464FF0140209F01FFF38694FF001015F
:1044B00006F092FC386904F031FE03467A69D3189D
:1044C0007B61386904F0D2FD7B685B683B6111E079
:1044D0003B695B68FB603B69BB60FB681B683B61D9
:1044E000B86804F01BFE03467A69D3187B61B8688C
:1044F00004F0BCFD3B69002BEAD17868396800F014
:10450000BFF847F64443C2F200031A887B699BB2A6
:10451000D31A9AB247F64443C2F200031A807B6969
:10452000184607F11807BD4680BD00BF80B588B0AA
:1045300000AF786039604FF000033B614FF000033B
:10454000BB614FF000037B614FF00003FB6047F657
:104550004043C2F200031B68FB612DE0FB695A690E
:104560007B68DB689A420CD1FB699A697B681B699E
:104570009A4206D1FB699A897B689B889BB29A42D2
:1045800011D0FB6803F10103FB60BB69002B02D172
:10459000FB69BB6107E0FB69DA7FBB69DB7F9A429D
:1045A00001D8FB69BB61FB691B68002B01D0FB696B
:1045B0007B61FB691B68FB61FB69002BCED1BB698A
:1045C000002B08D0B8697969FFF74AFFB8603A69EB
:1045D000BB68D3183B613A693B689A4202DAFB68D0
:1045E000012BABDC3B69184607F12007BD4680BDB7
:1045F00080B584B000AF786039604FF00500FFF7F8
:104600001BFDF860FB68002B12D178683968FFF752
:104610008DFF02463B689A4204DB4FF00500FFF72E
:104620000BFDF860FB68002B02D14FF0000321E086
:10463000F8684FF000014FF0200209F0F7FEFB6828
:104640004FF00302DA7747F64043C2F200031A68DC
:10465000FB681A6047F64043C2F20003FA681A602A
:10466000FB6803F10803184679684FF0140209F05B
:104670003BFEFB68184607F11007BD4680BD00BF32
:1046800080B582B000AF7860396047F64043C2F22F
:1046900000031A687B689A4207D17B681A6847F65C
:1046A0004043C2F200031A6003E07B681A683B686B
:1046B0001A604FF005007968FFF7E4FC07F108077E
:1046C000BD4680BD90B58BB000AF786039604FF0CB
:1046D00000033B624FF00103BB613B685B687B6199
:1046E0007B695B889BB2184604F08EFE03461C462D
:1046F0007B691B889BB2184604F086FE03464FEA8E
:1047000013239BB203F00F039BB21A464FEA823287
:10471000D31A4FEA83039BB2E3187B827B69DB8861
:104720009BB2184604F070FE03464FEAC3434FEABB
:10473000D3439BB24FEAC3033B823B685B687B6217
:104740007B6A4FF000021A704FF000025A704FF06F
:1047500000029A704FF00002DA707B6A3A8A9A80FF
:104760003A8A7B8AD3189AB27B6ADA807B685B6864
:10477000FB614DE0FB695B68FB607B6A9B889AB2DA
:10478000FB689B889BB29A421FD27B6AFA691A60C7
:104790003B6A002B15D07B6A9B889AB23B6ADB8808
:1047A0009BB29A42C0F091807B6ADB889AB2FB6828
:1047B0009B889BB29A4200F288803B6A3A681A60F2
:1047C00029E07B683A685A6025E07B6A9B889AB248
:1047D000FB689B889BB29A4274D07B6A9B889AB292
:1047E000FB68DB889BB29A426ED33B6A002B0AD0EF
:1047F0003B6ADB889AB2FB689B889BB29A4202D0E4
:104800004FF00003BB61FB681B68FB61FB683B6208
:10481000FB69002BAED1FB69002B18D13B6A002B42
:1048200012D03B6ADB887B6A9B883B6A3A681A60D5
:104830003B6ADB889AB27B6A9B889BB29A4206D01D
:104840004FF00003BB6102E07B683A685A607B6806
:104850009B7F03F00103002B31D0BB69002B2CD0D0
:104860007B685B685B689B889BB2002B03D04FF032
:104870000003BB6121E07B6A3B627B6A1B68FB61D2
:1048800013E0FB695B687B623B6ADB889AB27B6AF8
:104890009B889BB29A4203D04FF00003BB6107E0B4
:1048A0007B6A3B627B6A1B68FB61FB69002BE8D17A
:1048B000BB69002B01D07B6ADB88BB691AE04FF033
:1048C000000317E000BF00E000BF47F64443C2F218
:1048D00000031C88386804F021FC0346E31A9AB2EE
:1048E00047F64443C2F200031A80386804F0BEFB66
:1048F0004FF00003184607F12C07BD4690BD00BFDE
:1049000090B58BB000AF78604FF00003FB617B681F
:104910005B68BB61BB691B889BB2184604F074FDE1
:1049200003464FEA13239BB203F00F034FEA8303BE
:10493000142B40F03881BB69DB889BB2184604F029
:1049400063FD03464FEAC3434FEAD3439BB24FEAAA
:10495000C303FB82BB695B889BB2184604F054FD1D
:1049600003461C46BB691B889BB2184604F04CFDED
:1049700003464FEA13239BB203F00F039BB21A4680
:104980004FEA8232D31A4FEA83039BB2E318BB8209
:10499000786804F0C3FB0346FB7447F64443C2F255
:1049A00000031B881A46FB7CD3180A2B13DDFB7C03
:1049B000B8691946FFF7BAFD0346002B00F0F480F2
:1049C00047F64443C2F200031B881A46FB7CD31807
:1049D0000A2B00F3E98047F64043C2F200031B684C
:1049E0003B6217E03B6A5A69BB69DB689A420CD1AB
:1049F0003B6A9A69BB691B699A4206D13B6A9A89EC
:104A0000BB699B889BB29A4208D03B6AFB613B6AB8
:104A10001B683B623B6A002BE4D100E000BF3B6AAD
:104A2000002B09D1FB7CB8691946FFF7E1FD38621C
:104A30003B6A002B22D1B7E0BB69DB889BB21846EA
:104A400004F0E2FC03464FEAC3434FEAD343002B92
:104A500014D13B6ADB89184604F0D6FC03464FEAC2
:104A6000C3434FEAD343002B08D03B6A03F108034A
:104A70001846B9694FF0140209F036FCFB7C9AB273
:104A800047F64443C2F200031B88D3189AB247F694
:104A90004443C2F200031A80BB69DB889BB218460C
:104AA00004F0B2FC034603F40053002B0CD13B6A24
:104AB0009B7F43F00103DAB23B6A9A77FA8ABB8A9A
:104AC000D3189AB23B6A9A83386A7968FFF7FAFD7D
:104AD0000346002B64D03B6A9B8B03F114039AB20C
:104AE0003B6A9A833B6A5B685B681B687B623B6AD4
:104AF0005B685B68BB613B6A03F10803B8691946F0
:104B00004FF0140209F0F0FB3B6A9B8B184604F04F
:104B100063FC03461A46BB695A80BB694FF000022A
:104B20009A714FF00002DA71BB694FF000029A727D
:104B30004FF00002DA72B8694FF0140101F092FAF6
:104B400003461A46BB695A813B6A5B687B600EE08C
:104B50007B6A5B68FB60786A6FF0130104F00CFA03
:104B60007868796A04F008FBFB681B687B627B6AE3
:104B7000002BEDD1386AF969FFF782FD47F644430F
:104B8000C2F200031C88786804F0C8FA0346E31AEE
:104B90009AB247F64443C2F200031A807B6808E0E9
:104BA0004FF0000305E000BF786804F05FFA4FF0B3
:104BB0000003184607F12C07BD4690BD80B58CB0A8
:104BC00000AFF860B9607A60BB681B8DFB844FF062
:104BD00014037B854FF002004FF000014FF00202FA
:104BE00004F04AF838623B6A002B02D14FF0FF0311
:104BF000CEE03B6AFA8C5A813B6A5A893B6A1A8139
:104C000047F64843C2F2000303F1030323F0030312
:104C10001A463B6A5A603B6A5B68FB61FB685B68EB
:104C2000F86919464FF0140209F05EFBFB69DB8856
:104C30009BB2184604F0E8FB03463B853B8D4FEAE8
:104C4000C3434FEAD343BB853B8D03F400537B83BF
:104C5000FB681B89A3F11403FB85FB8CA3F11403F0
:104C6000002B01DA03F107034FEAE3033B8386E0FD
:104C7000FA8DFB8CA3F114039A42CCBF00230123CD
:104C8000DBB2FB82BB8D4FEAC3434FEAD3439AB2F8
:104C90007B8B13433B85FB8A002B03D13B8D43F475
:104CA00000533B85FB8A002B04D13B8B4FEAC303A7
:104CB0009BB200E0FB8DBB82FB6903F11401BA8A51
:104CC0007B8DF86804F01EFB03461A467B8DD318D3
:104CD0007B853B8D184604F07FFB03461A46FB6933
:104CE000DA80BB8A03F114039BB2184604F074FB0C
:104CF00003461A46FB695A80FB694FF000029A721C
:104D00004FF00002DA72F8694FF0140101F0AAF9CD
:104D100003461A46FB695A81FB8A002B07D0FB8D9C
:104D200003F114039BB2386A194604F0BFF84FF040
:104D300002004FF000014FF0000203F09DFF3861C8
:104D40003B69002B15D03869396A04F043FABB6817
:104D50005B69B86839697A689847386904F086F9F8
:104D6000FA8DBB8AD31AFB85BA8D3B8BD318BB85D2
:104D700005E0386A04F07AF94FF0FF0308E0FB8D94
:104D8000002B7FF475AF386A04F070F94FF0000320
:104D90005BB2184607F13007BD4680BD80B582B0D2
:104DA00000AF4EF2D873C0F600037B6040F2000300
:104DB000C2F200033B600BE07B681A683B681A6034
:104DC0003B6803F104033B607B6803F104037B60F1
:104DD0003A6840F2CC43C2F200039A42ECD308484E
:104DE00008494FF000028842B8BF40F8042BFFF694
:104DF000FAAF01F0A9F907F10807BD4680BD000030
:104E0000CC04002034C4002080B400AFFEE700BF13
:104E100080B584B000AF0346FB71FA794EF294730B
:104E2000C0F6000353F8223018464FF0010102F09B
:104E30005DF9FA794EF28C73C0F6000333F8123044
:104E4000BB604FF001033B734FF00003BB734FF0A7
:104E50000103FB734FF002037B73FA7940F2700396
:104E6000C2F2000353F8222007F108031046194646
:104E700004F060FC07F11007BD4680BD80B483B02C
:104E800000AF0346FB71FA7940F27003C2F20003EF
:104E900053F82220F9794EF28C73C0F6000333F8F0
:104EA0001130138307F10C07BD4680BC704700BF6B
:104EB00080B483B000AF0346FB71FA7940F270030F
:104EC000C2F2000353F82220F97940F27003C2F2D3
:104ED000000353F821305969F8794EF28C73C0F60B
:104EE000000333F810304B40536107F10C07BD4607
:104EF00080BC704780B485B000AF78604FF000038D
:104F0000FB607B68FB6003E0FB6803F1FF33FB6041
:104F1000FB68002BF8D107F11407BD4680BC704731
:104F200080B500AF4FF000704FF0010102F05CF966
:104F30004FF000704FF0000102F056F980BD00BF45
:104F400080B483B000AF78607B684FF001021A60D4
:104F50007B684FF000025A607B684FF000029A6055
:104F60007B684FF00002DA607B684FF000021A6144
:104F70007B684FF480425A617B684FF000029A616F
:104F80007B684FF00002DA617B684FF400621A62BE
:104F90007B684FF000025A627B684FF000029A6211
:104FA0007B684FF00002DA627B684FF000021A6300
:104FB0007B684FF000025A637B684FF000029A63EF
:104FC0007B684FF00002DA637B684FF040021A649E
:104FD0007B684FF020025A647B684FF000029A64AD
:104FE0007B684FF00002DA647B684FF000021A65BC
:104FF0007B684FF000025A657B684FF000029A65AB
:105000007B684FF00002DA657B684FF000021A6699
:105010007B684FF080025A667B684FF000029A6608
:105020007B684FF00002DA667B684FF000021A6777
:105030007B684FF000025A677B684FF000029A6766
:105040007B684FF00002DA677B684FF08062C3F83C
:1050500080207B684FF00072C3F884207B684FF09B
:105060000002C3F888207B684FF40012C3F88C203C
:105070007B684FF00002C3F890207B684FF000027D
:10508000C3F894207B684FF00002C3F898207B6837
:105090004FF00002C3F89C207B684FF00002C3F879
:1050A000A0207B684FF00072C3F8A4207B684FF407
:1050B0008032C3F8A8207B684FF48002C3F8AC208C
:1050C0007B684FF40052C3F8B0207B684FF00002B9
:1050D000C3F8B4207B684FF00002C3F8B82007F192
:1050E0000C07BD4680BC704780B58CB000AF7860BF
:1050F0000B467B804FF00003BB624FF00003FB6266
:105100004FF000033B624FF40743C0F293337B62DE
:105110004FF00003FB604FF40043C4F202031B692D
:10512000FB62FB6A23F01C03FB6207F110031846C5
:1051300001F0F6FE7B697B627A6A42F6FF43C0F2B9
:1051400031139A420BD97A6A40F6BF63C0F2162334
:105150009A4204D8FB6A43F00803FB6239E07A6A9A
:1051600040F6BF63C0F216239A420BD97A6A48F21E
:10517000FF63C0F293339A4204D8FB6A43F00C03F6
:10518000FB6226E07A6A48F2FF63C0F293339A42E8
:1051900006D97A6A4EF2FF03C0F2F5539A4217D944
:1051A0007A6A4EF2FF03C0F2F5539A420BD97A6A3B
:1051B0004DF27F13C0F6F0039A4204D8FB6A43F025
:1051C0000403FB6205E0FB6A43F01003FB6200E0AE
:1051D00000BF4FF40043C4F20203FA6A1A617B88ED
:1051E00018464FF000014FF4004200F031FE034634
:1051F000002B02D14FF00003ABE14FF6FF70C0F27D
:105200000F00FFF777FE7B681B68002B78D0FB68E8
:1052100003F10103FB607B8818464FF0010100F0A9
:10522000B3FD034603F00403002B06D1FA684FF6E2
:10523000FE73C0F204039A42E9D9FA684FF6FF738D
:10524000C0F204039A4202D14FF0000381E14FF013
:105250000003FB607B8818464FF000014FF480523A
:1052600000F0F6FD0346002B02D14FF0000370E181
:10527000FB6803F10103FB607B8818464FF00101D6
:1052800000F082FD034603F02003002B06D1FA68EC
:105290004FF6FE73C0F204039A42E9D9FA684FF65A
:1052A000FF73C0F204039A4202D14FF0000350E1B1
:1052B0004FF00003FB607B8818464FF0100100F0B0
:1052C00063FD0346BB62BB6A03F00403002B04D0FA
:1052D0007B684FF400621A6203E07B684FF00002C3
:1052E0001A62BB6A03F00203002B04D07B684FF004
:1052F00000025A6121E07B684FF480425A611CE051
:105300007B681B6A4FEAD3039AB27B685B694FEAFA
:1053100053039BB213439BB27A8810464FF00001AF
:105320001A4600F095FD0346002B02D14FF0000312
:105330000FE16FF07F40FFF7DDFD4FF40043C4F253
:1053400002031B68FB62FA6A48F20F13CFF6207360
:105350001340FB627B685A687B689B681A437B68D2
:10536000DB681A437B681B691A437B685B691A43D5
:105370007B689B691A437B68DB691A437B681B6AFD
:105380001A437B685B6A1A437B689B6A1A437B6893
:10539000DB6A1A437B681B6B1A437B685B6B1343A6
:1053A000FA6A1343FB624FF40043C4F20203FA6A41
:1053B0001A604FF40043C4F202037A68916B7A6872
:1053C000D26B11437A68126C11437A68526C1143A4
:1053D0007A68926C11437A68D26C11437A68126DC4
:1053E00011437A68526D0A435A604FF40043C4F285
:1053F00002037A68926D9A604FF40043C4F202038C
:105400007A68D26DDA604FF40043C4F202039B69FC
:10541000FB62FA6A4FF641731340FB627B681B6EB6
:105420004FEA03427B685B6E1A437B689B6E1A43AC
:105430007B68DB6E1A437B681B6F1A437B685B6F6C
:105440001343FA6A1343FB624FF40043C4F20203AE
:10545000FA6A9A614FF40043C4F202037A68916FCA
:105460007A68D26F0A43DA614FF40043C4F2020350
:1054700003F5805303F118031B68FB62FA6A43F6D5
:105480002373CFF6DE031340FB627B68D3F88020E2
:105490007B68D3F884301A437B68D3F888301A438A
:1054A0007B68D3F88C301A437B68D3F890301A436A
:1054B0007B68D3F894301A437B68D3F898301A434A
:1054C0007B68D3F89C301A437B68D3F8A030134331
:1054D000FA6A1343FB624FF40043C4F2020303F57C
:1054E000805303F11803FA6A1A604FF40043C4F2C0
:1054F00002037A68D2F8A4107A68D2F8A82011437F
:105500007A68D2F8AC2011437A68D2F8B0201143FF
:105510007A68D2F8B4204FEA820211437A68D2F84E
:10552000B8200A4342F4000203F580531A604FF496
:105530000043C4F202034FF40042C4F2020202F537
:105540008052126842F0800203F580531A604FF0D7
:105550000103184607F13007BD4680BD80B500AF96
:105560004FF0010000F010F800F088FB4FF0010050
:1055700000F030F84FF0010000F09AFB4FF001000E
:1055800000F0CCFB80BD00BF80B483B000AF034609
:10559000FB71FB79002B0CD04FF40043C4F20203E3
:1055A0004FF40042C4F20202126842F008021A608C
:1055B0000BE04FF40043C4F202034FF40042C4F284
:1055C0000202126822F008021A6007F10C07BD46B9
:1055D00080BC704780B483B000AF0346FB71FB7999
:1055E000002B0CD04FF40043C4F202034FF40042EE
:1055F000C4F20202126842F004021A600BE04FF497
:105600000043C4F202034FF40042C4F202021268E3
:1056100022F004021A6007F10C07BD4680BC7047F7
:1056200080B485B000AF786039603B6803F1050352
:105630001B784FEA03223B6803F104031B781343F2
:10564000FB607A6848F24003C4F20203D318FA6898
:105650001A603B6803F103031B784FEA03623B685F
:1056600003F102031B784FEA03431A433B6803F13B
:1056700001031B784FEA03231A433B681B7813434B
:10568000FB607A6848F24403C4F20203D318FA6854
:105690001A6007F11407BD4680BC704780B487B01C
:1056A00000AF78604FF000037B614FF00003BB60F8
:1056B0004FF00003FB604FF000033B6148F21073B2
:1056C000C2F200031B681A684FF00003C3F6FF73B1
:1056D00013404FEA1343A3F104037B617B69BB6072
:1056E0004AF28053C2F200031B689B68012B08D961
:1056F0004AF28053C2F200031B681B689B68FB6080
:1057000006E048F21073C2F200031B689B68FB605E
:1057100048F21073C2F200031B683B6148F2107339
:10572000C2F200031B68DB681A4648F21073C2F22B
:1057300000031A607B6807F1080207CA83E80700C4
:10574000786807F11C07BD4680BC704780B487B0FD
:1057500000AF0346FB804FF000037B614FF0000376
:10576000BB604FF000033B6148F21473C2F20003C8
:105770001B681B68002B02DA4FF00003D9E048F2E7
:105780001473C2F200031B68FB60FA8840F2F45302
:105790009A4220D9FA884BF20B03CAF60243A3FBC4
:1057A00002134FEA93239BB27B61FA884BF20B03FF
:1057B000CAF60243A3FB02134FEA932340F2F451CB
:1057C00001FB03F3D31A9BB2002B07D07B6903F1D3
:1057D00001037B6102E04FF001037B617B69012BD8
:1057E00033D148F21473C2F200031A6848F21473FA
:1057F000C2F200031B681B6843F04053136048F279
:105800001473C2F200031A68FB884FEAC3434FEADD
:10581000D343536048F21473C2F200031A6848F28B
:105820001473C2F200031B681B6843F0004313604B
:1058300048F21473C2F200031B68DB681A4648F290
:105840001473C2F200031A604EE04FF000033B6194
:1058500040E03B69002B0DD148F21473C2F2000303
:105860001A6848F21473C2F200031B681B6843F005
:1058700080531360FB6840F2F4525A607B6903F175
:10588000FF323B699A4218D1FB681B6843F0005213
:10589000FB681A60FA8879694FF60C23CFF6FF731C
:1058A00003FB01F3D31803F2F453BB60BB684FEA68
:1058B000C3434FEAD343FA685360FB681B6843F065
:1058C0000042FB681A60FB68DB68FB603B6903F120
:1058D00001033B613A697B699A42BAD348F2147377
:1058E000C2F20003FA681A604FF40043C4F20203E4
:1058F00003F5805303F114031B6803F00403002B2A
:1059000015D04FF40043C4F2020303F5805303F1B2
:1059100014034FF004021A604FF40043C4F2020370
:1059200003F5805303F104034FF000021A604FF0B7
:105930000103184607F11C07BD4680BC704700BF35
:1059400080B487B000AFF860B9607A604FF00003B0
:105950007B6148F21073C2F20003FA681A604FF0DC
:1059600000037B612FE07B694FEA4313FA68D31889
:105970003B613B694FF000421A603B6944F2F452CC
:105980005A607B6940F2F45202FB03F3BA68D31801
:105990001A463B699A607B6803F1FF327B699A4241
:1059A0000AD97B6903F101034FEA4313FA68D3185C
:1059B0001A463B69DA6002E0FA683B69DA607B69A3
:1059C00003F101037B617A697B689A42CBD34FF480
:1059D0000043C4F20203FA6803F5805303F10C0399
:1059E0001A604AF28053C2F2000348F20472C2F213
:1059F00000021A6007F11C07BD4680BC704700BF5B
:105A000080B400AF48F21073C2F200031B681B6839
:105A1000002B20DB48F21073C2F200031B681B68E6
:105A200003F48073002B16D04AF28053C2F20003B5
:105A30001A6848F21073C2F200031B6853604AF2FE
:105A40008053C2F200031B689A6802F101029A6057
:105A50004FF0010376E048F21073C2F200031B68B6
:105A60001B68002B3BDB48F21073C2F200031B687B
:105A70001B6803F40073002B31D048F21073C2F29C
:105A800000031B681B6803F48073002B27D14AF2C4
:105A90008053C2F200031A6848F21073C2F2000386
:105AA0001B6813604AF28053C2F200031B684FF078
:105AB00000025A604AF28053C2F200031B684FF0A2
:105AC00001029A6048F21073C2F200031B68DB689F
:105AD0001A4648F21073C2F200031A6030E048F22E
